{
  "contractName": "PropertyRegistry",
  "abi": [
    {
      "constant": true,
      "inputs": [
        {
          "name": "",
          "type": "uint256"
        }
      ],
      "name": "stayData",
      "outputs": [
        {
          "name": "price",
          "type": "uint256"
        },
        {
          "name": "stays",
          "type": "uint256"
        },
        {
          "name": "occupant",
          "type": "address"
        },
        {
          "name": "requested",
          "type": "address"
        },
        {
          "name": "approved",
          "type": "address"
        },
        {
          "name": "checkIn",
          "type": "uint256"
        },
        {
          "name": "checkOut",
          "type": "uint256"
        }
      ],
      "payable": false,
      "stateMutability": "view",
      "type": "function"
    },
    {
      "inputs": [
        {
          "name": "_property",
          "type": "address"
        },
        {
          "name": "_propertyToken",
          "type": "address"
        }
      ],
      "payable": false,
      "stateMutability": "nonpayable",
      "type": "constructor"
    },
    {
      "anonymous": false,
      "inputs": [
        {
          "indexed": true,
          "name": "_tokenId",
          "type": "uint256"
        }
      ],
      "name": "Registered",
      "type": "event"
    },
    {
      "anonymous": false,
      "inputs": [
        {
          "indexed": true,
          "name": "_tokenId",
          "type": "uint256"
        }
      ],
      "name": "Approved",
      "type": "event"
    },
    {
      "anonymous": false,
      "inputs": [
        {
          "indexed": true,
          "name": "_tokenId",
          "type": "uint256"
        }
      ],
      "name": "Requested",
      "type": "event"
    },
    {
      "anonymous": false,
      "inputs": [
        {
          "indexed": true,
          "name": "_tokenId",
          "type": "uint256"
        }
      ],
      "name": "CheckIn",
      "type": "event"
    },
    {
      "anonymous": false,
      "inputs": [
        {
          "indexed": true,
          "name": "_tokenId",
          "type": "uint256"
        }
      ],
      "name": "CheckOut",
      "type": "event"
    },
    {
      "constant": true,
      "inputs": [
        {
          "name": "_tokenId",
          "type": "uint256"
        }
      ],
      "name": "getStayData",
      "outputs": [
        {
          "name": "",
          "type": "uint256"
        },
        {
          "name": "",
          "type": "uint256"
        },
        {
          "name": "",
          "type": "address"
        },
        {
          "name": "",
          "type": "address"
        },
        {
          "name": "",
          "type": "address"
        },
        {
          "name": "",
          "type": "uint256"
        },
        {
          "name": "",
          "type": "uint256"
        }
      ],
      "payable": false,
      "stateMutability": "view",
      "type": "function"
    },
    {
      "constant": false,
      "inputs": [
        {
          "name": "_tokenId",
          "type": "uint256"
        },
        {
          "name": "_price",
          "type": "uint256"
        }
      ],
      "name": "registerProperty",
      "outputs": [],
      "payable": false,
      "stateMutability": "nonpayable",
      "type": "function"
    },
    {
      "constant": false,
      "inputs": [
        {
          "name": "_tokenId",
          "type": "uint256"
        },
        {
          "name": "_checkIn",
          "type": "uint256"
        },
        {
          "name": "_checkOut",
          "type": "uint256"
        }
      ],
      "name": "request",
      "outputs": [],
      "payable": false,
      "stateMutability": "nonpayable",
      "type": "function"
    },
    {
      "constant": false,
      "inputs": [
        {
          "name": "_tokenId",
          "type": "uint256"
        }
      ],
      "name": "approveRequest",
      "outputs": [],
      "payable": false,
      "stateMutability": "nonpayable",
      "type": "function"
    },
    {
      "constant": false,
      "inputs": [
        {
          "name": "_tokenId",
          "type": "uint256"
        }
      ],
      "name": "checkIn",
      "outputs": [],
      "payable": false,
      "stateMutability": "nonpayable",
      "type": "function"
    },
    {
      "constant": false,
      "inputs": [
        {
          "name": "_tokenId",
          "type": "uint256"
        }
      ],
      "name": "checkOut",
      "outputs": [],
      "payable": false,
      "stateMutability": "nonpayable",
      "type": "function"
    }
  ],
  "bytecode": "0x608060405234801561001057600080fd5b50604051604080610f338339810180604052810190808051906020019092919080519060200190929190505050816000806101000a81548173ffffffffffffffffffffffffffffffffffffffff021916908373ffffffffffffffffffffffffffffffffffffffff16021790555080600160006101000a81548173ffffffffffffffffffffffffffffffffffffffff021916908373ffffffffffffffffffffffffffffffffffffffff1602179055505050610e64806100cf6000396000f300608060405260043610610083576000357c0100000000000000000000000000000000000000000000000000000000900463ffffffff1680631bd2eeee146100885780637415733b146100b5578063c2e10ef8146101a4578063d7d1bbdb146101db578063e65befd114610208578063e95a644f14610249578063f4daaa3514610276575b600080fd5b34801561009457600080fd5b506100b360048036038101908080359060200190929190505050610365565b005b3480156100c157600080fd5b506100e0600480360381019080803590602001909291905050506104fb565b604051808881526020018781526020018673ffffffffffffffffffffffffffffffffffffffff1673ffffffffffffffffffffffffffffffffffffffff1681526020018573ffffffffffffffffffffffffffffffffffffffff1673ffffffffffffffffffffffffffffffffffffffff1681526020018473ffffffffffffffffffffffffffffffffffffffff1673ffffffffffffffffffffffffffffffffffffffff16815260200183815260200182815260200197505050505050505060405180910390f35b3480156101b057600080fd5b506101d9600480360381019080803590602001909291908035906020019092919050505061059d565b005b3480156101e757600080fd5b5061020660048036038101908080359060200190929190505050610863565b005b34801561021457600080fd5b50610247600480360381019080803590602001909291908035906020019092919080359060200190929190505050610a96565b005b34801561025557600080fd5b5061027460048036038101908080359060200190929190505050610bc4565b005b34801561028257600080fd5b506102a160048036038101908080359060200190929190505050610d13565b604051808881526020018781526020018673ffffffffffffffffffffffffffffffffffffffff1673ffffffffffffffffffffffffffffffffffffffff1681526020018573ffffffffffffffffffffffffffffffffffffffff1673ffffffffffffffffffffffffffffffffffffffff1681526020018473ffffffffffffffffffffffffffffffffffffffff1673ffffffffffffffffffffffffffffffffffffffff16815260200183815260200182815260200197505050505050505060405180910390f35b3373ffffffffffffffffffffffffffffffffffffffff166002600083815260200190815260200160002060020160009054906101000a900473ffffffffffffffffffffffffffffffffffffffff1673ffffffffffffffffffffffffffffffffffffffff161415156103d557600080fd5b6002600082815260200190815260200160002060060154421115156103f957600080fd5b60006002600083815260200190815260200160002060030160006101000a81548173ffffffffffffffffffffffffffffffffffffffff021916908373ffffffffffffffffffffffffffffffffffffffff16021790555060006002600083815260200190815260200160002060020160006101000a81548173ffffffffffffffffffffffffffffffffffffffff021916908373ffffffffffffffffffffffffffffffffffffffff1602179055506002600082815260200190815260200160002060010160008154809291906001019190505550807f2c276699fefbad45f18509233bc03bb9cfdf41b18f32756933188bdef35fef5560405160405180910390a250565b60026020528060005260406000206000915090508060000154908060010154908060020160009054906101000a900473ffffffffffffffffffffffffffffffffffffffff16908060030160009054906101000a900473ffffffffffffffffffffffffffffffffffffffff16908060040160009054906101000a900473ffffffffffffffffffffffffffffffffffffffff16908060050154908060060154905087565b813373ffffffffffffffffffffffffffffffffffffffff166000809054906101000a900473ffffffffffffffffffffffffffffffffffffffff1673ffffffffffffffffffffffffffffffffffffffff16636352211e836040518263ffffffff167c010000000000000000000000000000000000000000000000000000000002815260040180828152602001915050602060405180830381600087803b15801561064557600080fd5b505af1158015610659573d6000803e3d6000fd5b505050506040513d602081101561066f57600080fd5b810190808051906020019092919050505073ffffffffffffffffffffffffffffffffffffffff161415156106a257600080fd5b60e06040519081016040528083815260200160008152602001600073ffffffffffffffffffffffffffffffffffffffff168152602001600073ffffffffffffffffffffffffffffffffffffffff168152602001600073ffffffffffffffffffffffffffffffffffffffff16815260200160008152602001600081525060026000858152602001908152602001600020600082015181600001556020820151816001015560408201518160020160006101000a81548173ffffffffffffffffffffffffffffffffffffffff021916908373ffffffffffffffffffffffffffffffffffffffff16021790555060608201518160030160006101000a81548173ffffffffffffffffffffffffffffffffffffffff021916908373ffffffffffffffffffffffffffffffffffffffff16021790555060808201518160040160006101000a81548173ffffffffffffffffffffffffffffffffffffffff021916908373ffffffffffffffffffffffffffffffffffffffff16021790555060a0820151816005015560c08201518160060155905050827f1fcb8fd4a09d0facf37b6e1cd47a0cce5aa0b069a1d3d5bd9c223220fa1f5a1c60405160405180910390a2505050565b803373ffffffffffffffffffffffffffffffffffffffff166000809054906101000a900473ffffffffffffffffffffffffffffffffffffffff1673ffffffffffffffffffffffffffffffffffffffff16636352211e836040518263ffffffff167c010000000000000000000000000000000000000000000000000000000002815260040180828152602001915050602060405180830381600087803b15801561090b57600080fd5b505af115801561091f573d6000803e3d6000fd5b505050506040513d602081101561093557600080fd5b810190808051906020019092919050505073ffffffffffffffffffffffffffffffffffffffff1614151561096857600080fd5b600073ffffffffffffffffffffffffffffffffffffffff166002600084815260200190815260200160002060030160009054906101000a900473ffffffffffffffffffffffffffffffffffffffff1673ffffffffffffffffffffffffffffffffffffffff16141515156109da57600080fd5b6002600083815260200190815260200160002060030160009054906101000a900473ffffffffffffffffffffffffffffffffffffffff166002600084815260200190815260200160002060040160006101000a81548173ffffffffffffffffffffffffffffffffffffffff021916908373ffffffffffffffffffffffffffffffffffffffff160217905550817f3ad93af63cb7967b23e4fb500b7d7d28b07516325dcf341f88bebf959d82c1cb60405160405180910390a25050565b600073ffffffffffffffffffffffffffffffffffffffff166002600085815260200190815260200160002060030160009054906101000a900473ffffffffffffffffffffffffffffffffffffffff1673ffffffffffffffffffffffffffffffffffffffff16141515610b0757600080fd5b336002600085815260200190815260200160002060030160006101000a81548173ffffffffffffffffffffffffffffffffffffffff021916908373ffffffffffffffffffffffffffffffffffffffff160217905550816002600085815260200190815260200160002060050181905550806002600085815260200190815260200160002060060181905550827f54593fbf3d0e13af724316e44a7387ee756ab753993496c7009658e83217002c60405160405180910390a2505050565b3373ffffffffffffffffffffffffffffffffffffffff166002600083815260200190815260200160002060040160009054906101000a900473ffffffffffffffffffffffffffffffffffffffff1673ffffffffffffffffffffffffffffffffffffffff16141515610c3457600080fd5b600260008281526020019081526020016000206005015442111515610c5857600080fd5b6002600082815260200190815260200160002060040160009054906101000a900473ffffffffffffffffffffffffffffffffffffffff166002600083815260200190815260200160002060020160006101000a81548173ffffffffffffffffffffffffffffffffffffffff021916908373ffffffffffffffffffffffffffffffffffffffff160217905550807fdf06c27528e294967ba5e32e69b9c5fe102a58c699c44740c2c4c6afc719253560405160405180910390a250565b60008060008060008060006002600089815260200190815260200160002060000154600260008a815260200190815260200160002060010154600260008b815260200190815260200160002060030160009054906101000a900473ffffffffffffffffffffffffffffffffffffffff16600260008c815260200190815260200160002060040160009054906101000a900473ffffffffffffffffffffffffffffffffffffffff16600260008d815260200190815260200160002060020160009054906101000a900473ffffffffffffffffffffffffffffffffffffffff16600260008e815260200190815260200160002060050154600260008f81526020019081526020016000206006015496509650965096509650965096509193959790929496505600a165627a7a72305820b0ba23da649c98c67ca3928169cce3394cfee6889f8e519b66e488100a5cf9f70029",
  "source": "//jshint ignore: start\n\npragma solidity ^0.4.24;\n\nimport 'zeppelin-solidity/contracts/token/ERC721/ERC721Basic.sol';\nimport 'zeppelin-solidity/contracts/token/ERC20/ERC20.sol';\n\ncontract PropertyRegistry {\n\n  // initialize the property registry variable\n  ERC721Basic property;\n  ERC20 propertyToken;\n\n  struct Data {\n    uint256 price;\n    uint256 stays;\n    address occupant;\n    address requested;\n    address approved;\n    uint256 checkIn;\n    uint256 checkOut;\n  }\n  mapping(uint256 => Data) public stayData;\n\n  event Registered(uint256 indexed _tokenId);\n  event Approved(uint256 indexed _tokenId);\n  event Requested(uint256 indexed _tokenId);\n  event CheckIn(uint256 indexed _tokenId);\n  event CheckOut(uint256 indexed _tokenId);\n\n  modifier onlyOwner(uint256 _tokenId) {\n    require(property.ownerOf(_tokenId) == msg.sender);\n    _;\n  }\n\n  //set up the property contract as minimum interface to prove ownership ERC721Basic\n  constructor(address _property, address _propertyToken) public {\n    property = ERC721Basic(_property);\n    propertyToken = ERC20(_propertyToken);\n  }\n\n  function getStayData(uint256 _tokenId) external view returns(\n      uint256, uint256, address, address, address, uint256, uint256\n    ) {\n      return (\n        stayData[_tokenId].price,\n        stayData[_tokenId].stays,\n        stayData[_tokenId].requested,\n        stayData[_tokenId].approved,\n        stayData[_tokenId].occupant,\n        stayData[_tokenId].checkIn,\n        stayData[_tokenId].checkOut\n      );\n  }\n\n  function registerProperty(uint256 _tokenId, uint256 _price) external onlyOwner(_tokenId) {\n    stayData[_tokenId] = Data(_price, 0, address(0), address(0), address(0), 0, 0);//initialize struct on registration\n    emit Registered(_tokenId);\n  }\n\n  function request(uint256 _tokenId, uint256 _checkIn, uint256 _checkOut) external {\n    require(stayData[_tokenId].requested == address(0));\n    stayData[_tokenId].requested = msg.sender;\n    stayData[_tokenId].checkIn = _checkIn;\n    stayData[_tokenId].checkOut = _checkOut;\n    emit Requested(_tokenId);\n  }\n\n  function approveRequest(uint256 _tokenId) external onlyOwner(_tokenId) {\n    require(stayData[_tokenId].requested != address(0));\n    stayData[_tokenId].approved = stayData[_tokenId].requested;\n    emit Approved(_tokenId);\n  }\n\n  function checkIn(uint256 _tokenId) external {\n    require(stayData[_tokenId].approved == msg.sender);\n    require(now > stayData[_tokenId].checkIn);\n    //REQUIRED: transfer tokens to propertyRegistry upon successful check in\n    //the message sender should have approved thr propertyRegistry to transfer\n    //at least stayData[_tokenId].price tokens\n    //address(this) == this contract address\n    //require(propertyToken.transferFrom(msg.sender, address(this), stayData[_tokenId].price));\n    //move approved guest to occupant\n    stayData[_tokenId].occupant = stayData[_tokenId].approved;\n    emit CheckIn(_tokenId);\n  }\n\n  function checkOut(uint256 _tokenId) external {\n    require(stayData[_tokenId].occupant == msg.sender);\n    require(now > stayData[_tokenId].checkOut);\n    //require(propertyToken.transfer(property.ownerOf(_tokenId), stayData[_tokenId].price));\n    stayData[_tokenId].requested = address(0);\n    stayData[_tokenId].occupant = address(0);\n    stayData[_tokenId].stays++;\n    emit CheckOut(_tokenId);\n  }\n\n\n}\n",
  "sourcePath": "/home/orchid/WorkSpace/Blockchain/Property/contracts/PropertyRegistry.sol",
  "compiler": {
    "name": "solc",
    "version": "0.4.24+commit.e67f0147.Emscripten.clang"
  },
  "schemaVersion": "2.0.1",
  "updatedAt": "2018-11-26T03:15:35.480Z"
}